{
  "contractName": "SolnSquareVerifier",
  "abi": [
    {
      "inputs": [
        {
          "internalType": "address",
          "name": "contractAddress",
          "type": "address"
        }
      ],
      "payable": false,
      "stateMutability": "nonpayable",
      "type": "constructor"
    },
    {
      "anonymous": false,
      "inputs": [
        {
          "indexed": true,
          "internalType": "address",
          "name": "owner",
          "type": "address"
        },
        {
          "indexed": true,
          "internalType": "address",
          "name": "approved",
          "type": "address"
        },
        {
          "indexed": true,
          "internalType": "uint256",
          "name": "tokenId",
          "type": "uint256"
        }
      ],
      "name": "Approval",
      "type": "event"
    },
    {
      "anonymous": false,
      "inputs": [
        {
          "indexed": true,
          "internalType": "address",
          "name": "owner",
          "type": "address"
        },
        {
          "indexed": true,
          "internalType": "address",
          "name": "operator",
          "type": "address"
        },
        {
          "indexed": false,
          "internalType": "bool",
          "name": "approved",
          "type": "bool"
        }
      ],
      "name": "ApprovalForAll",
      "type": "event"
    },
    {
      "anonymous": false,
      "inputs": [
        {
          "indexed": false,
          "internalType": "address",
          "name": "oldOwner",
          "type": "address"
        },
        {
          "indexed": false,
          "internalType": "address",
          "name": "newOwner",
          "type": "address"
        }
      ],
      "name": "OwnershipTransferred",
      "type": "event"
    },
    {
      "anonymous": false,
      "inputs": [
        {
          "indexed": false,
          "internalType": "address",
          "name": "caller",
          "type": "address"
        }
      ],
      "name": "Paused",
      "type": "event"
    },
    {
      "anonymous": false,
      "inputs": [
        {
          "indexed": false,
          "internalType": "address",
          "name": "sender",
          "type": "address"
        },
        {
          "indexed": false,
          "internalType": "uint256",
          "name": "index",
          "type": "uint256"
        }
      ],
      "name": "SolutionAdded",
      "type": "event"
    },
    {
      "anonymous": false,
      "inputs": [
        {
          "indexed": true,
          "internalType": "address",
          "name": "from",
          "type": "address"
        },
        {
          "indexed": true,
          "internalType": "address",
          "name": "to",
          "type": "address"
        },
        {
          "indexed": true,
          "internalType": "uint256",
          "name": "tokenId",
          "type": "uint256"
        }
      ],
      "name": "Transfer",
      "type": "event"
    },
    {
      "anonymous": false,
      "inputs": [
        {
          "indexed": false,
          "internalType": "address",
          "name": "caller",
          "type": "address"
        }
      ],
      "name": "Unpaused",
      "type": "event"
    },
    {
      "constant": false,
      "inputs": [
        {
          "internalType": "bytes32",
          "name": "_myid",
          "type": "bytes32"
        },
        {
          "internalType": "string",
          "name": "_result",
          "type": "string"
        }
      ],
      "name": "__callback",
      "outputs": [],
      "payable": false,
      "stateMutability": "nonpayable",
      "type": "function"
    },
    {
      "constant": false,
      "inputs": [
        {
          "internalType": "bytes32",
          "name": "_myid",
          "type": "bytes32"
        },
        {
          "internalType": "string",
          "name": "_result",
          "type": "string"
        },
        {
          "internalType": "bytes",
          "name": "_proof",
          "type": "bytes"
        }
      ],
      "name": "__callback",
      "outputs": [],
      "payable": false,
      "stateMutability": "nonpayable",
      "type": "function"
    },
    {
      "constant": false,
      "inputs": [
        {
          "internalType": "address",
          "name": "to",
          "type": "address"
        },
        {
          "internalType": "uint256",
          "name": "tokenId",
          "type": "uint256"
        }
      ],
      "name": "approve",
      "outputs": [],
      "payable": false,
      "stateMutability": "nonpayable",
      "type": "function"
    },
    {
      "constant": true,
      "inputs": [
        {
          "internalType": "address",
          "name": "owner",
          "type": "address"
        }
      ],
      "name": "balanceOf",
      "outputs": [
        {
          "internalType": "uint256",
          "name": "",
          "type": "uint256"
        }
      ],
      "payable": false,
      "stateMutability": "view",
      "type": "function"
    },
    {
      "constant": true,
      "inputs": [],
      "name": "baseTokenURI",
      "outputs": [
        {
          "internalType": "string",
          "name": "",
          "type": "string"
        }
      ],
      "payable": false,
      "stateMutability": "view",
      "type": "function"
    },
    {
      "constant": true,
      "inputs": [
        {
          "internalType": "uint256",
          "name": "tokenId",
          "type": "uint256"
        }
      ],
      "name": "getApproved",
      "outputs": [
        {
          "internalType": "address",
          "name": "",
          "type": "address"
        }
      ],
      "payable": false,
      "stateMutability": "view",
      "type": "function"
    },
    {
      "constant": true,
      "inputs": [
        {
          "internalType": "address",
          "name": "owner",
          "type": "address"
        },
        {
          "internalType": "address",
          "name": "operator",
          "type": "address"
        }
      ],
      "name": "isApprovedForAll",
      "outputs": [
        {
          "internalType": "bool",
          "name": "",
          "type": "bool"
        }
      ],
      "payable": false,
      "stateMutability": "view",
      "type": "function"
    },
    {
      "constant": true,
      "inputs": [],
      "name": "name",
      "outputs": [
        {
          "internalType": "string",
          "name": "",
          "type": "string"
        }
      ],
      "payable": false,
      "stateMutability": "view",
      "type": "function"
    },
    {
      "constant": true,
      "inputs": [],
      "name": "owner",
      "outputs": [
        {
          "internalType": "address",
          "name": "",
          "type": "address"
        }
      ],
      "payable": false,
      "stateMutability": "view",
      "type": "function"
    },
    {
      "constant": true,
      "inputs": [
        {
          "internalType": "uint256",
          "name": "tokenId",
          "type": "uint256"
        }
      ],
      "name": "ownerOf",
      "outputs": [
        {
          "internalType": "address",
          "name": "",
          "type": "address"
        }
      ],
      "payable": false,
      "stateMutability": "view",
      "type": "function"
    },
    {
      "constant": false,
      "inputs": [
        {
          "internalType": "address",
          "name": "from",
          "type": "address"
        },
        {
          "internalType": "address",
          "name": "to",
          "type": "address"
        },
        {
          "internalType": "uint256",
          "name": "tokenId",
          "type": "uint256"
        }
      ],
      "name": "safeTransferFrom",
      "outputs": [],
      "payable": false,
      "stateMutability": "nonpayable",
      "type": "function"
    },
    {
      "constant": false,
      "inputs": [
        {
          "internalType": "address",
          "name": "from",
          "type": "address"
        },
        {
          "internalType": "address",
          "name": "to",
          "type": "address"
        },
        {
          "internalType": "uint256",
          "name": "tokenId",
          "type": "uint256"
        },
        {
          "internalType": "bytes",
          "name": "_data",
          "type": "bytes"
        }
      ],
      "name": "safeTransferFrom",
      "outputs": [],
      "payable": false,
      "stateMutability": "nonpayable",
      "type": "function"
    },
    {
      "constant": false,
      "inputs": [
        {
          "internalType": "address",
          "name": "to",
          "type": "address"
        },
        {
          "internalType": "bool",
          "name": "approved",
          "type": "bool"
        }
      ],
      "name": "setApprovalForAll",
      "outputs": [],
      "payable": false,
      "stateMutability": "nonpayable",
      "type": "function"
    },
    {
      "constant": false,
      "inputs": [
        {
          "internalType": "bool",
          "name": "newPaused",
          "type": "bool"
        }
      ],
      "name": "setPaused",
      "outputs": [],
      "payable": false,
      "stateMutability": "nonpayable",
      "type": "function"
    },
    {
      "constant": true,
      "inputs": [
        {
          "internalType": "bytes4",
          "name": "interfaceId",
          "type": "bytes4"
        }
      ],
      "name": "supportsInterface",
      "outputs": [
        {
          "internalType": "bool",
          "name": "",
          "type": "bool"
        }
      ],
      "payable": false,
      "stateMutability": "view",
      "type": "function"
    },
    {
      "constant": true,
      "inputs": [],
      "name": "symbol",
      "outputs": [
        {
          "internalType": "string",
          "name": "",
          "type": "string"
        }
      ],
      "payable": false,
      "stateMutability": "view",
      "type": "function"
    },
    {
      "constant": true,
      "inputs": [
        {
          "internalType": "uint256",
          "name": "index",
          "type": "uint256"
        }
      ],
      "name": "tokenByIndex",
      "outputs": [
        {
          "internalType": "uint256",
          "name": "",
          "type": "uint256"
        }
      ],
      "payable": false,
      "stateMutability": "view",
      "type": "function"
    },
    {
      "constant": true,
      "inputs": [
        {
          "internalType": "address",
          "name": "owner",
          "type": "address"
        },
        {
          "internalType": "uint256",
          "name": "index",
          "type": "uint256"
        }
      ],
      "name": "tokenOfOwnerByIndex",
      "outputs": [
        {
          "internalType": "uint256",
          "name": "",
          "type": "uint256"
        }
      ],
      "payable": false,
      "stateMutability": "view",
      "type": "function"
    },
    {
      "constant": true,
      "inputs": [
        {
          "internalType": "uint256",
          "name": "tokenId",
          "type": "uint256"
        }
      ],
      "name": "tokenURI",
      "outputs": [
        {
          "internalType": "string",
          "name": "",
          "type": "string"
        }
      ],
      "payable": false,
      "stateMutability": "view",
      "type": "function"
    },
    {
      "constant": true,
      "inputs": [],
      "name": "totalSupply",
      "outputs": [
        {
          "internalType": "uint256",
          "name": "",
          "type": "uint256"
        }
      ],
      "payable": false,
      "stateMutability": "view",
      "type": "function"
    },
    {
      "constant": false,
      "inputs": [
        {
          "internalType": "address",
          "name": "from",
          "type": "address"
        },
        {
          "internalType": "address",
          "name": "to",
          "type": "address"
        },
        {
          "internalType": "uint256",
          "name": "tokenId",
          "type": "uint256"
        }
      ],
      "name": "transferFrom",
      "outputs": [],
      "payable": false,
      "stateMutability": "nonpayable",
      "type": "function"
    },
    {
      "constant": false,
      "inputs": [
        {
          "internalType": "address",
          "name": "newOwner",
          "type": "address"
        }
      ],
      "name": "transferOwnership",
      "outputs": [],
      "payable": false,
      "stateMutability": "nonpayable",
      "type": "function"
    },
    {
      "constant": false,
      "inputs": [
        {
          "components": [
            {
              "components": [
                {
                  "internalType": "uint256",
                  "name": "X",
                  "type": "uint256"
                },
                {
                  "internalType": "uint256",
                  "name": "Y",
                  "type": "uint256"
                }
              ],
              "internalType": "struct SquareVerifier.G1Point",
              "name": "a",
              "type": "tuple"
            },
            {
              "components": [
                {
                  "internalType": "uint256[2]",
                  "name": "X",
                  "type": "uint256[2]"
                },
                {
                  "internalType": "uint256[2]",
                  "name": "Y",
                  "type": "uint256[2]"
                }
              ],
              "internalType": "struct SquareVerifier.G2Point",
              "name": "b",
              "type": "tuple"
            },
            {
              "components": [
                {
                  "internalType": "uint256",
                  "name": "X",
                  "type": "uint256"
                },
                {
                  "internalType": "uint256",
                  "name": "Y",
                  "type": "uint256"
                }
              ],
              "internalType": "struct SquareVerifier.G1Point",
              "name": "c",
              "type": "tuple"
            }
          ],
          "internalType": "struct SquareVerifier.Proof",
          "name": "proof",
          "type": "tuple"
        },
        {
          "internalType": "uint256[2]",
          "name": "input",
          "type": "uint256[2]"
        }
      ],
      "name": "addSolution",
      "outputs": [],
      "payable": false,
      "stateMutability": "nonpayable",
      "type": "function"
    },
    {
      "constant": false,
      "inputs": [
        {
          "internalType": "address",
          "name": "to",
          "type": "address"
        },
        {
          "internalType": "uint256",
          "name": "tokenId",
          "type": "uint256"
        },
        {
          "internalType": "uint256",
          "name": "solutionIndex",
          "type": "uint256"
        }
      ],
      "name": "mint",
      "outputs": [],
      "payable": false,
      "stateMutability": "nonpayable",
      "type": "function"
    },
    {
      "constant": false,
      "inputs": [
        {
          "internalType": "address",
          "name": "to",
          "type": "address"
        },
        {
          "internalType": "uint256",
          "name": "tokenId",
          "type": "uint256"
        }
      ],
      "name": "mint",
      "outputs": [
        {
          "internalType": "bool",
          "name": "",
          "type": "bool"
        }
      ],
      "payable": false,
      "stateMutability": "nonpayable",
      "type": "function"
    }
  ],
  "bytecode": "0x60806040523480156200001157600080fd5b506040516200409d3803806200409d8339818101604052620000379190810190620003d0565b6040518060400160405280600881526020017f534431546f6b656e0000000000000000000000000000000000000000000000008152506040518060400160405280600381526020017f53443100000000000000000000000000000000000000000000000000000000008152506040518060600160405280603f81526020016200405e603f9139336000806101000a81548173ffffffffffffffffffffffffffffffffffffffff021916908373ffffffffffffffffffffffffffffffffffffffff1602179055507f8be0079c531659141344cd1fd0a4f28419497f9722a3daafe3b4186f6b6457e060008060009054906101000a900473ffffffffffffffffffffffffffffffffffffffff16604051620001529291906200041e565b60405180910390a160008060146101000a81548160ff0219169083151502179055506200018c6301ffc9a760e01b6200026a60201b60201c565b620001a46380ac58cd60e01b6200026a60201b60201c565b620001bc63780e9d6360e01b6200026a60201b60201c565b82600f9080519060200190620001d49291906200030a565b508160109080519060200190620001ed9291906200030a565b508060119080519060200190620002069291906200030a565b506200021f635b5e139f60e01b6200026a60201b60201c565b50505080601660006101000a81548173ffffffffffffffffffffffffffffffffffffffff021916908373ffffffffffffffffffffffffffffffffffffffff16021790555050620004d5565b63ffffffff60e01b817bffffffffffffffffffffffffffffffffffffffffffffffffffffffff191614156200029e57600080fd5b6001806000837bffffffffffffffffffffffffffffffffffffffffffffffffffffffff19167bffffffffffffffffffffffffffffffffffffffffffffffffffffffff1916815260200190815260200160002060006101000a81548160ff02191690831515021790555050565b828054600181600116156101000203166002900490600052602060002090601f016020900481019282601f106200034d57805160ff19168380011785556200037e565b828001600101855582156200037e579182015b828111156200037d57825182559160200191906001019062000360565b5b5090506200038d919062000391565b5090565b620003b691905b80821115620003b257600081600090555060010162000398565b5090565b90565b600081519050620003ca81620004bb565b92915050565b600060208284031215620003e357600080fd5b6000620003f384828501620003b9565b91505092915050565b62000407816200047f565b82525050565b62000418816200044b565b82525050565b6000604082019050620004356000830185620003fc565b6200044460208301846200040d565b9392505050565b600062000458826200045f565b9050919050565b600073ffffffffffffffffffffffffffffffffffffffff82169050919050565b60006200048c8262000493565b9050919050565b6000620004a082620004a7565b9050919050565b6000620004b4826200045f565b9050919050565b620004c6816200044b565b8114620004d257600080fd5b50565b613b7980620004e56000396000f3fe608060405234801561001057600080fd5b50600436106101735760003560e01c806342842e0e116100de57806395d89b4111610097578063c87b56dd11610071578063c87b56dd14610458578063d547cfb714610488578063e985e9c5146104a6578063f2fde38b146104d657610173565b806395d89b4114610402578063a22cb46514610420578063b88d4fde1461043c57610173565b806342842e0e1461031c5780634f6ccce7146103385780636352211e146103685780636977bc841461039857806370a08231146103b45780638da5cb5b146103e457610173565b806318160ddd1161013057806318160ddd1461024a57806323b872dd1461026857806327dc297e146102845780632f745c59146102a057806338bbfa50146102d057806340c10f19146102ec57610173565b806301ffc9a71461017857806306fdde03146101a8578063081812fc146101c6578063095ea7b3146101f6578063156e29f61461021257806316c38b3c1461022e575b600080fd5b610192600480360361018d9190810190612edd565b6104f2565b60405161019f9190613684565b60405180910390f35b6101b061055a565b6040516101bd919061369f565b60405180910390f35b6101e060048036036101db9190810190612f6d565b6105fc565b6040516101ed91906135b0565b60405180910390f35b610210600480360361020b9190810190612d2d565b610639565b005b61022c60048036036102279190810190612d69565b61088e565b005b61024860048036036102439190810190612db8565b610a1c565b005b610252610b51565b60405161025f91906138ac565b60405180910390f35b610282600480360361027d9190810190612c27565b610b5e565b005b61029e60048036036102999190810190612e0a565b610bd1565b005b6102ba60048036036102b59190810190612d2d565b610c14565b6040516102c791906138ac565b60405180910390f35b6102ea60048036036102e59190810190612e5e565b610c87565b005b61030660048036036103019190810190612d2d565b610c8c565b6040516103139190613684565b60405180910390f35b61033660048036036103319190810190612c27565b610d8a565b005b610352600480360361034d9190810190612f6d565b610dfa565b60405161035f91906138ac565b60405180910390f35b610382600480360361037d9190810190612f6d565b610e2e565b60405161038f91906135b0565b60405180910390f35b6103b260048036036103ad9190810190612f2f565b610e6b565b005b6103ce60048036036103c99190810190612bc2565b611265565b6040516103db91906138ac565b60405180910390f35b6103ec6112b5565b6040516103f991906135b0565b60405180910390f35b61040a6112de565b604051610417919061369f565b60405180910390f35b61043a60048036036104359190810190612cf1565b611380565b005b61045660048036036104519190810190612c76565b611506565b005b610472600480360361046d9190810190612f6d565b61157c565b60405161047f919061369f565b60405180910390f35b610490611643565b60405161049d919061369f565b60405180910390f35b6104c060048036036104bb9190810190612beb565b6116e5565b6040516104cd9190613684565b60405180910390f35b6104f060048036036104eb9190810190612bc2565b611779565b005b600060016000837bffffffffffffffffffffffffffffffffffffffffffffffffffffffff19167bffffffffffffffffffffffffffffffffffffffffffffffffffffffff1916815260200190815260200160002060009054906101000a900460ff169050919050565b6060600f8054600181600116156101000203166002900480601f0160208091040260200160405190810160405280929190818152602001828054600181600116156101000203166002900480156105f25780601f106105c7576101008083540402835291602001916105f2565b820191906000526020600020905b8154815290600101906020018083116105d557829003601f168201915b5050505050905090565b60006003600083815260200190815260200160002060009054906101000a900473ffffffffffffffffffffffffffffffffffffffff169050919050565b600060149054906101000a900460ff1615610689576040517f08c379a000000000000000000000000000000000000000000000000000000000815260040161068090613821565b60405180910390fd5b8173ffffffffffffffffffffffffffffffffffffffff166002600083815260200190815260200160002060009054906101000a900473ffffffffffffffffffffffffffffffffffffffff1673ffffffffffffffffffffffffffffffffffffffff16141561072b576040517f08c379a000000000000000000000000000000000000000000000000000000000815260040161072290613761565b60405180910390fd5b6002600082815260200190815260200160002060009054906101000a900473ffffffffffffffffffffffffffffffffffffffff1673ffffffffffffffffffffffffffffffffffffffff163373ffffffffffffffffffffffffffffffffffffffff16148061079e575061079d33836116e5565b5b6107dd576040517f08c379a00000000000000000000000000000000000000000000000000000000081526004016107d490613721565b60405180910390fd5b816003600083815260200190815260200160002060006101000a81548173ffffffffffffffffffffffffffffffffffffffff021916908373ffffffffffffffffffffffffffffffffffffffff160217905550808273ffffffffffffffffffffffffffffffffffffffff163373ffffffffffffffffffffffffffffffffffffffff167f8c5be1e5ebec7d5bd14f71427d1e84f3dd0314c0f7b2291e5b200ac8c7c3b92560405160405180910390a45050565b6015600082815260200190815260200160002060010160149054906101000a900460ff16156108f2576040517f08c379a00000000000000000000000000000000000000000000000000000000081526004016108e9906137e1565b60405180910390fd5b3373ffffffffffffffffffffffffffffffffffffffff166015600083815260200190815260200160002060010160009054906101000a900473ffffffffffffffffffffffffffffffffffffffff1673ffffffffffffffffffffffffffffffffffffffff1614610996576040517f08c379a000000000000000000000000000000000000000000000000000000000815260040161098d90613741565b60405180910390fd5b60138054905081106109dd576040517f08c379a00000000000000000000000000000000000000000000000000000000081526004016109d4906136c1565b60405180910390fd5b60016015600083815260200190815260200160002060010160146101000a81548160ff021916908315150217905550610a168383610c8c565b50505050565b6000809054906101000a900473ffffffffffffffffffffffffffffffffffffffff1673ffffffffffffffffffffffffffffffffffffffff163373ffffffffffffffffffffffffffffffffffffffff1614610aab576040517f08c379a0000000000000000000000000000000000000000000000000000000008152600401610aa2906137c1565b60405180910390fd5b80600060146101000a81548160ff021916908315150217905550600060149054906101000a900460ff1615610b16577f62e78cea01bee320cd4e420270b5ea74000d11b0c9f74754ebdbfc544b05a25833604051610b0991906135cb565b60405180910390a1610b4e565b7f5db9ee0a495bf2e6ff9c91a7834c1ba4fdd244a5e8aa4e537bd38aeae4b073aa33604051610b4591906135cb565b60405180910390a15b50565b6000600880549050905090565b600060149054906101000a900460ff1615610bae576040517f08c379a0000000000000000000000000000000000000000000000000000000008152600401610ba590613821565b60405180910390fd5b610bb83382611919565b610bc157600080fd5b610bcc8383836119ae565b505050565b610c10828260006040519080825280601f01601f191660200182016040528015610c0a5781602001600182028038833980820191505090505b50610c87565b5050565b6000610c1f83611265565b8210610c2a57600080fd5b600660008473ffffffffffffffffffffffffffffffffffffffff1673ffffffffffffffffffffffffffffffffffffffff1681526020019081526020016000208281548110610c7457fe5b9060005260206000200154905092915050565b505050565b60008060009054906101000a900473ffffffffffffffffffffffffffffffffffffffff1673ffffffffffffffffffffffffffffffffffffffff163373ffffffffffffffffffffffffffffffffffffffff1614610d1d576040517f08c379a0000000000000000000000000000000000000000000000000000000008152600401610d14906137c1565b60405180910390fd5b600060149054906101000a900460ff1615610d6d576040517f08c379a0000000000000000000000000000000000000000000000000000000008152600401610d6490613821565b60405180910390fd5b610d7783836119d2565b610d80826119f3565b6001905092915050565b600060149054906101000a900460ff1615610dda576040517f08c379a0000000000000000000000000000000000000000000000000000000008152600401610dd190613821565b60405180910390fd5b610df583838360405180602001604052806000815250611506565b505050565b6000610e04610b51565b8210610e0f57600080fd5b60088281548110610e1c57fe5b90600052602060002001549050919050565b60006002600083815260200190815260200160002060009054906101000a900473ffffffffffffffffffffffffffffffffffffffff169050919050565b60008282604051602001610e80929190613881565b604051602081830303815290604052805190602001209050600073ffffffffffffffffffffffffffffffffffffffff166014600083815260200190815260200160002060010160009054906101000a900473ffffffffffffffffffffffffffffffffffffffff1673ffffffffffffffffffffffffffffffffffffffff1614610f3d576040517f08c379a0000000000000000000000000000000000000000000000000000000008152600401610f3490613861565b60405180910390fd5b601660009054906101000a900473ffffffffffffffffffffffffffffffffffffffff1673ffffffffffffffffffffffffffffffffffffffff166343cd76fc84846040518363ffffffff1660e01b8152600401610f9a929190613881565b60206040518083038186803b158015610fb257600080fd5b505afa158015610fc6573d6000803e3d6000fd5b505050506040513d601f19601f82011682018060405250610fea9190810190612de1565b611029576040517f08c379a0000000000000000000000000000000000000000000000000000000008152600401611020906137a1565b60405180910390fd5b611031612943565b604051806060016040528060138054905081526020013373ffffffffffffffffffffffffffffffffffffffff168152602001600015158152509050601381908060018154018082558091505090600182039060005260206000209060020201600090919290919091506000820151816000015560208201518160010160006101000a81548173ffffffffffffffffffffffffffffffffffffffff021916908373ffffffffffffffffffffffffffffffffffffffff16021790555060408201518160010160146101000a81548160ff02191690831515021790555050505080601460008481526020019081526020016000206000820151816000015560208201518160010160006101000a81548173ffffffffffffffffffffffffffffffffffffffff021916908373ffffffffffffffffffffffffffffffffffffffff16021790555060408201518160010160146101000a81548160ff0219169083151502179055509050508060156000836000015181526020019081526020016000206000820151816000015560208201518160010160006101000a81548173ffffffffffffffffffffffffffffffffffffffff021916908373ffffffffffffffffffffffffffffffffffffffff16021790555060408201518160010160146101000a81548160ff0219169083151502179055509050507f3a01cc868bdb36c1d9b8a262a8ad25064b23ac175b3f8e4453f1daf8ff6bac0d338260000151604051611257929190613632565b60405180910390a150505050565b60006112ae600460008473ffffffffffffffffffffffffffffffffffffffff1673ffffffffffffffffffffffffffffffffffffffff168152602001908152602001600020611b11565b9050919050565b60008060009054906101000a900473ffffffffffffffffffffffffffffffffffffffff16905090565b606060108054600181600116156101000203166002900480601f0160208091040260200160405190810160405280929190818152602001828054600181600116156101000203166002900480156113765780601f1061134b57610100808354040283529160200191611376565b820191906000526020600020905b81548152906001019060200180831161135957829003601f168201915b5050505050905090565b600060149054906101000a900460ff16156113d0576040517f08c379a00000000000000000000000000000000000000000000000000000000081526004016113c790613821565b60405180910390fd5b3373ffffffffffffffffffffffffffffffffffffffff168273ffffffffffffffffffffffffffffffffffffffff16141561140957600080fd5b80600560003373ffffffffffffffffffffffffffffffffffffffff1673ffffffffffffffffffffffffffffffffffffffff16815260200190815260200160002060008473ffffffffffffffffffffffffffffffffffffffff1673ffffffffffffffffffffffffffffffffffffffff16815260200190815260200160002060006101000a81548160ff0219169083151502179055508173ffffffffffffffffffffffffffffffffffffffff163373ffffffffffffffffffffffffffffffffffffffff167f17307eab39ab6107e8899845ad3d59bd9653f200f220920489ca2b5937696c31836040516114fa9190613684565b60405180910390a35050565b600060149054906101000a900460ff1615611556576040517f08c379a000000000000000000000000000000000000000000000000000000000815260040161154d90613821565b60405180910390fd5b611561848484610b5e565b61156d84848484611b1f565b61157657600080fd5b50505050565b606061158782611c36565b61159057600080fd5b601260008381526020019081526020016000208054600181600116156101000203166002900480601f0160208091040260200160405190810160405280929190818152602001828054600181600116156101000203166002900480156116375780601f1061160c57610100808354040283529160200191611637565b820191906000526020600020905b81548152906001019060200180831161161a57829003601f168201915b50505050509050919050565b606060118054600181600116156101000203166002900480601f0160208091040260200160405190810160405280929190818152602001828054600181600116156101000203166002900480156116db5780601f106116b0576101008083540402835291602001916116db565b820191906000526020600020905b8154815290600101906020018083116116be57829003601f168201915b5050505050905090565b6000600560008473ffffffffffffffffffffffffffffffffffffffff1673ffffffffffffffffffffffffffffffffffffffff16815260200190815260200160002060008373ffffffffffffffffffffffffffffffffffffffff1673ffffffffffffffffffffffffffffffffffffffff16815260200190815260200160002060009054906101000a900460ff16905092915050565b6000809054906101000a900473ffffffffffffffffffffffffffffffffffffffff1673ffffffffffffffffffffffffffffffffffffffff163373ffffffffffffffffffffffffffffffffffffffff1614611808576040517f08c379a00000000000000000000000000000000000000000000000000000000081526004016117ff906137c1565b60405180910390fd5b8073ffffffffffffffffffffffffffffffffffffffff168173ffffffffffffffffffffffffffffffffffffffff1614611876576040517f08c379a000000000000000000000000000000000000000000000000000000000815260040161186d90613801565b60405180910390fd5b60008060009054906101000a900473ffffffffffffffffffffffffffffffffffffffff169050816000806101000a81548173ffffffffffffffffffffffffffffffffffffffff021916908373ffffffffffffffffffffffffffffffffffffffff1602179055507f8be0079c531659141344cd1fd0a4f28419497f9722a3daafe3b4186f6b6457e0818360405161190d92919061365b565b60405180910390a15050565b60008061192583610e2e565b90508073ffffffffffffffffffffffffffffffffffffffff168473ffffffffffffffffffffffffffffffffffffffff16148061199457508373ffffffffffffffffffffffffffffffffffffffff1661197c846105fc565b73ffffffffffffffffffffffffffffffffffffffff16145b806119a557506119a481856116e5565b5b91505092915050565b6119b9838383611ca8565b6119c38382611f00565b6119cd828261209e565b505050565b6119dc8282612165565b6119e6828261209e565b6119ef816122dd565b5050565b6119fc81611c36565b611a3b576040517f08c379a0000000000000000000000000000000000000000000000000000000008152600401611a3290613701565b60405180910390fd5b611ae760118054600181600116156101000203166002900480601f016020809104026020016040519081016040528092919081815260200182805460018160011615610100020316600290048015611ad45780601f10611aa957610100808354040283529160200191611ad4565b820191906000526020600020905b815481529060010190602001808311611ab757829003601f168201915b5050505050611ae283612329565b612456565b601260008381526020019081526020016000209080519060200190611b0d92919061297c565b5050565b600081600001549050919050565b6000611b408473ffffffffffffffffffffffffffffffffffffffff1661249a565b611b4d5760019050611c2e565b60008473ffffffffffffffffffffffffffffffffffffffff1663150b7a02338887876040518563ffffffff1660e01b8152600401611b8e94939291906135e6565b602060405180830381600087803b158015611ba857600080fd5b505af1158015611bbc573d6000803e3d6000fd5b505050506040513d601f19601f82011682018060405250611be09190810190612f06565b905063150b7a0260e01b7bffffffffffffffffffffffffffffffffffffffffffffffffffffffff1916817bffffffffffffffffffffffffffffffffffffffffffffffffffffffff1916149150505b949350505050565b6000806002600084815260200190815260200160002060009054906101000a900473ffffffffffffffffffffffffffffffffffffffff169050600073ffffffffffffffffffffffffffffffffffffffff168173ffffffffffffffffffffffffffffffffffffffff161415915050919050565b6002600082815260200190815260200160002060009054906101000a900473ffffffffffffffffffffffffffffffffffffffff1673ffffffffffffffffffffffffffffffffffffffff168373ffffffffffffffffffffffffffffffffffffffff1614611d49576040517f08c379a0000000000000000000000000000000000000000000000000000000008152600401611d4090613781565b60405180910390fd5b8173ffffffffffffffffffffffffffffffffffffffff168273ffffffffffffffffffffffffffffffffffffffff1614611db7576040517f08c379a0000000000000000000000000000000000000000000000000000000008152600401611dae906136e1565b60405180910390fd5b611dc0816124e5565b611e07600460008573ffffffffffffffffffffffffffffffffffffffff1673ffffffffffffffffffffffffffffffffffffffff1681526020019081526020016000206125a3565b611e4e600460008473ffffffffffffffffffffffffffffffffffffffff1673ffffffffffffffffffffffffffffffffffffffff1681526020019081526020016000206125c6565b816002600083815260200190815260200160002060006101000a81548173ffffffffffffffffffffffffffffffffffffffff021916908373ffffffffffffffffffffffffffffffffffffffff160217905550808273ffffffffffffffffffffffffffffffffffffffff168473ffffffffffffffffffffffffffffffffffffffff167fddf252ad1be2c89b69c2b068fc378daa952ba7f163c4a11628f55a4df523b3ef60405160405180910390a4505050565b6000611f586001600660008673ffffffffffffffffffffffffffffffffffffffff1673ffffffffffffffffffffffffffffffffffffffff168152602001908152602001600020805490506125dc90919063ffffffff16565b9050600060076000848152602001908152602001600020549050818114612045576000600660008673ffffffffffffffffffffffffffffffffffffffff1673ffffffffffffffffffffffffffffffffffffffff1681526020019081526020016000208381548110611fc557fe5b9060005260206000200154905080600660008773ffffffffffffffffffffffffffffffffffffffff1673ffffffffffffffffffffffffffffffffffffffff168152602001908152602001600020838154811061201d57fe5b9060005260206000200181905550816007600083815260200190815260200160002081905550505b600660008573ffffffffffffffffffffffffffffffffffffffff1673ffffffffffffffffffffffffffffffffffffffff16815260200190815260200160002080548091906001900361209791906129fc565b5050505050565b600660008373ffffffffffffffffffffffffffffffffffffffff1673ffffffffffffffffffffffffffffffffffffffff168152602001908152602001600020805490506007600083815260200190815260200160002081905550600660008373ffffffffffffffffffffffffffffffffffffffff1673ffffffffffffffffffffffffffffffffffffffff1681526020019081526020016000208190806001815401808255809150509060018203906000526020600020016000909192909190915055505050565b8173ffffffffffffffffffffffffffffffffffffffff168273ffffffffffffffffffffffffffffffffffffffff161480156121a657506121a481611c36565b155b6121e5576040517f08c379a00000000000000000000000000000000000000000000000000000000081526004016121dc90613841565b60405180910390fd5b816002600083815260200190815260200160002060006101000a81548173ffffffffffffffffffffffffffffffffffffffff021916908373ffffffffffffffffffffffffffffffffffffffff16021790555061227e600460008473ffffffffffffffffffffffffffffffffffffffff1673ffffffffffffffffffffffffffffffffffffffff1681526020019081526020016000206125c6565b808273ffffffffffffffffffffffffffffffffffffffff163373ffffffffffffffffffffffffffffffffffffffff167fddf252ad1be2c89b69c2b068fc378daa952ba7f163c4a11628f55a4df523b3ef60405160405180910390a45050565b6008805490506009600083815260200190815260200160002081905550600881908060018154018082558091505090600182039060005260206000200160009091929091909150555050565b60606000821415612371576040518060400160405280600181526020017f30000000000000000000000000000000000000000000000000000000000000008152509050612451565b600082905060005b6000821461239b578080600101915050600a828161239357fe5b049150612379565b6060816040519080825280601f01601f1916602001820160405280156123d05781602001600182028038833980820191505090505b50905060006001830390505b6000861461244957600a86816123ee57fe5b0660300160f81b8282806001900393508151811061240857fe5b60200101907effffffffffffffffffffffffffffffffffffffffffffffffffffffffffffff1916908160001a905350600a868161244157fe5b0495506123dc565b819450505050505b919050565b60606124928383604051806020016040528060008152506040518060200160405280600081525060405180602001604052806000815250612626565b905092915050565b60008060007fc5d2460186f7233c927e7db2dcc703c0e500b653ca82273b7bfad8045d85a47060001b9050833f91508082141580156124dc57506000801b8214155b92505050919050565b600073ffffffffffffffffffffffffffffffffffffffff166003600083815260200190815260200160002060009054906101000a900473ffffffffffffffffffffffffffffffffffffffff1673ffffffffffffffffffffffffffffffffffffffff16146125a05760006003600083815260200190815260200160002060006101000a81548173ffffffffffffffffffffffffffffffffffffffff021916908373ffffffffffffffffffffffffffffffffffffffff1602179055505b50565b6125bb600182600001546125dc90919063ffffffff16565b816000018190555050565b6001816000016000828254019250508190555050565b600061261e83836040518060400160405280601e81526020017f536166654d6174683a207375627472616374696f6e206f766572666c6f7700008152506128e8565b905092915050565b6060808690506060869050606086905060608690506060869050606081518351855187518951010101016040519080825280601f01601f1916602001820160405280156126825781602001600182028038833980820191505090505b509050606081905060008090506000809050600090505b8851811015612707578881815181106126ae57fe5b602001015160f81c60f81b8383806001019450815181106126cb57fe5b60200101907effffffffffffffffffffffffffffffffffffffffffffffffffffffffffffff1916908160001a9053508080600101915050612699565b600090505b875181101561277a5787818151811061272157fe5b602001015160f81c60f81b83838060010194508151811061273e57fe5b60200101907effffffffffffffffffffffffffffffffffffffffffffffffffffffffffffff1916908160001a905350808060010191505061270c565b600090505b86518110156127ed5786818151811061279457fe5b602001015160f81c60f81b8383806001019450815181106127b157fe5b60200101907effffffffffffffffffffffffffffffffffffffffffffffffffffffffffffff1916908160001a905350808060010191505061277f565b600090505b85518110156128605785818151811061280757fe5b602001015160f81c60f81b83838060010194508151811061282457fe5b60200101907effffffffffffffffffffffffffffffffffffffffffffffffffffffffffffff1916908160001a90535080806001019150506127f2565b600090505b84518110156128d35784818151811061287a57fe5b602001015160f81c60f81b83838060010194508151811061289757fe5b60200101907effffffffffffffffffffffffffffffffffffffffffffffffffffffffffffff1916908160001a9053508080600101915050612865565b82995050505050505050505095945050505050565b6000838311158290612930576040517f08c379a0000000000000000000000000000000000000000000000000000000008152600401612927919061369f565b60405180910390fd5b5060008385039050809150509392505050565b604051806060016040528060008152602001600073ffffffffffffffffffffffffffffffffffffffff1681526020016000151581525090565b828054600181600116156101000203166002900490600052602060002090601f016020900481019282601f106129bd57805160ff19168380011785556129eb565b828001600101855582156129eb579182015b828111156129ea5782518255916020019190600101906129cf565b5b5090506129f89190612a28565b5090565b815481835581811115612a2357818360005260206000209182019101612a229190612a28565b5b505050565b612a4a91905b80821115612a46576000816000905550600101612a2e565b5090565b90565b600081359050612a5c81613ac3565b92915050565b600081905082602060020282011115612a7a57600080fd5b92915050565b600081359050612a8f81613ada565b92915050565b600081519050612aa481613ada565b92915050565b600081359050612ab981613af1565b92915050565b600081359050612ace81613b08565b92915050565b600081519050612ae381613b08565b92915050565b600082601f830112612afa57600080fd5b8135612b0d612b08826138f4565b6138c7565b91508082526020830160208301858383011115612b2957600080fd5b612b34838284613a70565b50505092915050565b600082601f830112612b4e57600080fd5b8135612b61612b5c82613920565b6138c7565b91508082526020830160208301858383011115612b7d57600080fd5b612b88838284613a70565b50505092915050565b60006101008284031215612ba457600080fd5b81905092915050565b600081359050612bbc81613b1f565b92915050565b600060208284031215612bd457600080fd5b6000612be284828501612a4d565b91505092915050565b60008060408385031215612bfe57600080fd5b6000612c0c85828601612a4d565b9250506020612c1d85828601612a4d565b9150509250929050565b600080600060608486031215612c3c57600080fd5b6000612c4a86828701612a4d565b9350506020612c5b86828701612a4d565b9250506040612c6c86828701612bad565b9150509250925092565b60008060008060808587031215612c8c57600080fd5b6000612c9a87828801612a4d565b9450506020612cab87828801612a4d565b9350506040612cbc87828801612bad565b925050606085013567ffffffffffffffff811115612cd957600080fd5b612ce587828801612ae9565b91505092959194509250565b60008060408385031215612d0457600080fd5b6000612d1285828601612a4d565b9250506020612d2385828601612a80565b9150509250929050565b60008060408385031215612d4057600080fd5b6000612d4e85828601612a4d565b9250506020612d5f85828601612bad565b9150509250929050565b600080600060608486031215612d7e57600080fd5b6000612d8c86828701612a4d565b9350506020612d9d86828701612bad565b9250506040612dae86828701612bad565b9150509250925092565b600060208284031215612dca57600080fd5b6000612dd884828501612a80565b91505092915050565b600060208284031215612df357600080fd5b6000612e0184828501612a95565b91505092915050565b60008060408385031215612e1d57600080fd5b6000612e2b85828601612aaa565b925050602083013567ffffffffffffffff811115612e4857600080fd5b612e5485828601612b3d565b9150509250929050565b600080600060608486031215612e7357600080fd5b6000612e8186828701612aaa565b935050602084013567ffffffffffffffff811115612e9e57600080fd5b612eaa86828701612b3d565b925050604084013567ffffffffffffffff811115612ec757600080fd5b612ed386828701612ae9565b9150509250925092565b600060208284031215612eef57600080fd5b6000612efd84828501612abf565b91505092915050565b600060208284031215612f1857600080fd5b6000612f2684828501612ad4565b91505092915050565b6000806101408385031215612f4357600080fd5b6000612f5185828601612b91565b925050610100612f6385828601612a62565b9150509250929050565b600060208284031215612f7f57600080fd5b6000612f8d84828501612bad565b91505092915050565b612f9f81613a3a565b82525050565b612fae816139bc565b82525050565b612fc060408383613a70565b5050565b612fd060408383613a70565b5050565b612fdd816139ce565b82525050565b6000612fee8261394c565b612ff88185613962565b9350613008818560208601613a7f565b61301181613ab2565b840191505092915050565b600061302782613957565b6130318185613973565b9350613041818560208601613a7f565b61304a81613ab2565b840191505092915050565b6000613062601983613973565b91507f536f6c7574696f6e20696e64657820697320696e76616c6964000000000000006000830152602082019050919050565b60006130a2601783613973565b91507f546f2061646472657373206973206e6f742076616c69640000000000000000006000830152602082019050919050565b60006130e2601483613973565b91507f546f6b656e20646f6573206e6f742065786973740000000000000000000000006000830152602082019050919050565b6000613122604183613973565b91507f4f746865722061646472657373206973206e6f7420617574686f72697a65642060008301527f746f207472616e7366657220746f6b656e73206f6e20796f757220626568616c60208301527f66000000000000000000000000000000000000000000000000000000000000006040830152606082019050919050565b60006131ae603183613973565b91507f596f7520646964206e6f74206164642074686520736f6c7574696f6e2077697460008301527f682074686520676976656e20696e6465780000000000000000000000000000006020830152604082019050919050565b6000613214602683613973565b91507f4f7468657220616464726573732063616e6e6f74206265206f776e6572206f6660008301527f20746f6b656e00000000000000000000000000000000000000000000000000006020830152604082019050919050565b600061327a602a83613973565b91507f46726f6d2061646472657373206973206e6f7420746865206f776e6572206f6660008301527f2074686520746f6b656e000000000000000000000000000000000000000000006020830152604082019050919050565b60006132e0601583613973565b91507f536f6c7574696f6e20697320696e636f727265637400000000000000000000006000830152602082019050919050565b6000613320601c83613973565b91507f43616c6c6572206973206e6f7420636f6e7472616374206f776e6572000000006000830152602082019050919050565b6000613360601e83613973565b91507f536f6c7574696f6e2068617320616c7265616479206265656e207573656400006000830152602082019050919050565b60006133a0601f83613973565b91507f4e6577206f776e6572206973206e6f742061207265616c2061646472657373006000830152602082019050919050565b60006133e0601283613973565b91507f436f6e74726163742069732070617573656400000000000000000000000000006000830152602082019050919050565b6000613420602a83613973565b91507f4164647265737320697320696e76616c6964206f7220746f6b656e20616c726560008301527f61647920657869737473000000000000000000000000000000000000000000006020830152604082019050919050565b6000613486601683613973565b91507f536f6c7574696f6e206973206e6f7420756e69717565000000000000000000006000830152602082019050919050565b604082016134ca60008301836139a5565b6134d76000850182613592565b506134e560208301836139a5565b6134f26020850182613592565b50505050565b608082016135096000830183613984565b6135166000850182612fc4565b506135246040830183613984565b6135316040850182612fc4565b50505050565b6101008201613549600083018361398f565b61355660008501826134b9565b50613564604083018361399a565b61357160408501826134f8565b5061357f60c083018361398f565b61358c60c08501826134b9565b50505050565b61359b81613a30565b82525050565b6135aa81613a30565b82525050565b60006020820190506135c56000830184612fa5565b92915050565b60006020820190506135e06000830184612f96565b92915050565b60006080820190506135fb6000830187612f96565b6136086020830186612fa5565b61361560408301856135a1565b81810360608301526136278184612fe3565b905095945050505050565b60006040820190506136476000830185612f96565b61365460208301846135a1565b9392505050565b60006040820190506136706000830185612fa5565b61367d6020830184612fa5565b9392505050565b60006020820190506136996000830184612fd4565b92915050565b600060208201905081810360008301526136b9818461301c565b905092915050565b600060208201905081810360008301526136da81613055565b9050919050565b600060208201905081810360008301526136fa81613095565b9050919050565b6000602082019050818103600083015261371a816130d5565b9050919050565b6000602082019050818103600083015261373a81613115565b9050919050565b6000602082019050818103600083015261375a816131a1565b9050919050565b6000602082019050818103600083015261377a81613207565b9050919050565b6000602082019050818103600083015261379a8161326d565b9050919050565b600060208201905081810360008301526137ba816132d3565b9050919050565b600060208201905081810360008301526137da81613313565b9050919050565b600060208201905081810360008301526137fa81613353565b9050919050565b6000602082019050818103600083015261381a81613393565b9050919050565b6000602082019050818103600083015261383a816133d3565b9050919050565b6000602082019050818103600083015261385a81613413565b9050919050565b6000602082019050818103600083015261387a81613479565b9050919050565b6000610140820190506138976000830185613537565b6138a5610100830184612fb4565b9392505050565b60006020820190506138c160008301846135a1565b92915050565b6000604051905081810181811067ffffffffffffffff821117156138ea57600080fd5b8060405250919050565b600067ffffffffffffffff82111561390b57600080fd5b601f19601f8301169050602081019050919050565b600067ffffffffffffffff82111561393757600080fd5b601f19601f8301169050602081019050919050565b600081519050919050565b600081519050919050565b600082825260208201905092915050565b600082825260208201905092915050565b600082905092915050565b600082905092915050565b600082905092915050565b60006139b46020840184612bad565b905092915050565b60006139c782613a10565b9050919050565b60008115159050919050565b6000819050919050565b60007fffffffff0000000000000000000000000000000000000000000000000000000082169050919050565b600073ffffffffffffffffffffffffffffffffffffffff82169050919050565b6000819050919050565b6000613a4582613a4c565b9050919050565b6000613a5782613a5e565b9050919050565b6000613a6982613a10565b9050919050565b82818337600083830152505050565b60005b83811015613a9d578082015181840152602081019050613a82565b83811115613aac576000848401525b50505050565b6000601f19601f8301169050919050565b613acc816139bc565b8114613ad757600080fd5b50565b613ae3816139ce565b8114613aee57600080fd5b50565b613afa816139da565b8114613b0557600080fd5b50565b613b11816139e4565b8114613b1c57600080fd5b50565b613b2881613a30565b8114613b3357600080fd5b5056fea365627a7a72315820d2de7fe5f282160ba084e8c15d1b2e7032f165e741164701cc24e334a96604b76c6578706572696d656e74616cf564736f6c6343000510004068747470733a2f2f73332d75732d776573742d322e616d617a6f6e6177732e636f6d2f756461636974792d626c6f636b636861696e2f63617073746f6e652f",
  "source": "pragma solidity >=0.4.21 <0.6.0;\npragma experimental ABIEncoderV2;\nimport \"./ERC721Mintable.sol\";\n\n// TODO define a contract call to the zokrates generated solidity contract <Verifier> or <renamedVerifier>\ncontract SquareVerifier {\n    struct G1Point {\n        uint256 X;\n        uint256 Y;\n    }\n    struct G2Point {\n        uint256[2] X;\n        uint256[2] Y;\n    }\n    struct Proof {\n        G1Point a;\n        G2Point b;\n        G1Point c;\n    }\n\n    function verifyTx(Proof memory proof, uint256[2] memory input)\n        public\n        view\n        returns (bool);\n}\n\n// TODO define another contract named SolnSquareVerifier that inherits from your ERC721Mintable class\ncontract SolnSquareVerifier is SD1Token {\n    // TODO define a solutions struct that can hold an index & an address\n    struct Solution {\n        uint256 index;\n        address sender;\n        bool used;\n    }\n\n    // TODO define an array of the above struct\n    Solution[] private solutionList;\n\n    // TODO define a mapping to store unique solutions submitted\n    mapping(bytes32 => Solution) private uniqueSolutions;\n    mapping(uint256 => Solution) private solutionMap;\n\n    // TODO Create an event to emit when a solution is added\n    event SolutionAdded(address sender, uint256 index);\n\n    SquareVerifier private verifier;\n\n    constructor(address contractAddress) public {\n        verifier = SquareVerifier(contractAddress);\n    }\n\n    // TODO Create a function to add the solutions to the array and emit the event\n    function addSolution(\n        SquareVerifier.Proof calldata proof,\n        uint256[2] calldata input\n    ) external {\n        bytes32 solutionHash = keccak256(abi.encode(proof, input));\n        require(\n            uniqueSolutions[solutionHash].sender == address(0),\n            \"Solution is not unique\"\n        );\n        require(verifier.verifyTx(proof, input), \"Solution is incorrect\");\n        Solution memory solution = Solution(\n            solutionList.length,\n            msg.sender,\n            false\n        );\n        solutionList.push(solution);\n        uniqueSolutions[solutionHash] = solution;\n        solutionMap[solution.index] = solution;\n        emit SolutionAdded(msg.sender, solution.index);\n    }\n\n    // TODO Create a function to mint new NFT only after the solution has been verified\n    //  - make sure the solution is unique (has not been used before)\n    //  - make sure you handle metadata as well as tokenSuplly\n    function mint(\n        address to,\n        uint256 tokenId,\n        uint256 solutionIndex\n    ) external {\n        require(\n            !solutionMap[solutionIndex].used,\n            \"Solution has already been used\"\n        );\n        require(\n            solutionMap[solutionIndex].sender == msg.sender,\n            \"You did not add the solution with the given index\"\n        );\n        require(\n            solutionIndex < solutionList.length,\n            \"Solution index is invalid\"\n        );\n        solutionMap[solutionIndex].used = true;\n        mint(to, tokenId);\n    }\n}\n",
  "sourcePath": "/Users/dshrihan/Projects/Blockchain-Capstone/eth-contracts/contracts/SolnSquareVerifier.sol",
  "compiler": {
    "name": "solc",
    "version": "0.5.16+commit.9c3226ce.Emscripten.clang"
  },
  "schemaVersion": "3.4.8",
  "updatedAt": "2022-07-21T21:17:26.968Z",
  "networkType": "ethereum",
  "devdoc": {
    "methods": {
      "isApprovedForAll(address,address)": {
        "details": "Tells whether an operator is approved by a given owner",
        "params": {
          "operator": "operator address which you want to query the approval of",
          "owner": "owner address which you want to query the approval of"
        },
        "return": "bool whether the given operator is approved by the given owner"
      },
      "setApprovalForAll(address,bool)": {
        "details": "Sets or unsets the approval of a given operator An operator is allowed to transfer all tokens of the sender on their behalf",
        "params": {
          "approved": "representing the status of the approval to be set",
          "to": "operator address to set the approval"
        }
      },
      "supportsInterface(bytes4)": {
        "details": "implement supportsInterface(bytes4) using a lookup table"
      },
      "tokenByIndex(uint256)": {
        "details": "Gets the token ID at a given index of all the tokens in this contract Reverts if the index is greater or equal to the total number of tokens",
        "params": {
          "index": "uint256 representing the index to be accessed of the tokens list"
        },
        "return": "uint256 token ID at the given index of the tokens list"
      },
      "tokenOfOwnerByIndex(address,uint256)": {
        "details": "Gets the token ID at a given index of the tokens list of the requested owner",
        "params": {
          "index": "uint256 representing the index to be accessed of the requested tokens list",
          "owner": "address owning the tokens list to be accessed"
        },
        "return": "uint256 token ID at the given index of the tokens list owned by the requested address"
      },
      "totalSupply()": {
        "details": "Gets the total amount of tokens stored by the contract",
        "return": "uint256 representing the total amount of tokens"
      }
    }
  },
  "userdoc": {
    "methods": {}
  }
}